:020000040800F2
:10000000002800204D120008DD110008E31100084F
:10001000E9110008EF110008F511000800000000C8
:10002000000000000000000000000000FB110008BC
:100030000712000800000000131200081F12000839
:1000400095120008951200089512000895120008F4
:1000500095120008951200089512000895120008E4
:1000600095120008951200089512000895120008D4
:1000700095120008951200089512000895120008C4
:1000800095120008951200089512000895120008B4
:1000900095120008951200089512000895120008A4
:1000A0009512000895120008951200089512000894
:1000B0002D1200089512000800000000951200089B
:1000C00095120008000000000000000095120008D2
:1000D00000000000951200089512000800000000C2
:1000E0009512000895120008951200080000000003
:1000F0000000000000000000000000000000000000
:0C01000000000000000000005FF808F1A3
:10010C0010B5054C237833B9044B13B10448AFF345
:10011C0000800123237010BD680000200000000047
:10012C00AC28000808B5034B1BB103490348AFF3D7
:10013C00008008BD000000006C000020AC28000806
:10014C0080B483B000AF7860094A7B6852F82330E2
:10015C00012B06D1064A7B68002142F823100123AB
:10016C0000E0002318460C37BD4680BC704700BF2A
:10017C008400002080B483B000AF7860044A7B68B0
:10018C00012142F8231000BF0C37BD4680BC7047DC
:10019C008400002080B582B000AF00237B6069E052
:1001AC00384A7B6852F8232037497B6841F8232072
:1001BC00364A7B6852F8232032497B6841F8232069
:1001CC00334A7B6832F813301946324801F048FB49
:1001DC00034619462D4A7B6842F82310294A7B684E
:1001EC0052F8232029497B6851F823309A423ED19A
:1001FC00244A7B6852F8232023497B6851F823302A
:10020C009A4234D1204A7B6852F8232022497B68D9
:10021C0051F823309A4216D01B4A7B6852F823209F
:10022C001D497B6841F823201B4A7B6852F8233018
:10023C00002B1CD1194A7B68C82142F8231078681E
:10024C00FFF798FF13E0154A7B6852F823305A1ECB
:10025C0012497B6841F82320104A7B6852F82330FE
:10026C00002B04D10C4A7B68012142F823107B68D7
:10027C0001337B607B68022B92DD00BF00BF083727
:10028C00BD4680BD14000020200000200800002086
:10029C0000000020001001402C000020380000203D
:1002AC0080B500AF884B1B68042B00F2FE8101A2C5
:1002BC0052F823F0D50200081D030008EB030008D8
:1002CC0001050008CF05000800F080FD7F4B1B687E
:1002DC007F4A82FB03125211DB17D31A7D4A13603B
:1002EC007D4B1B687A4A82FB03125211DB17D31A1F
:1002FC007A4A1360744B01221A60774B1B681946BB
:10030C00002000F0B9FE6421012000F0B5FED5E11B
:10031C0000F0D8FC00F02EFD714B1B68012B08D1AE
:10032C00694B02221A606F4B1B681946002000F0C3
:10033C00A3FE6B4B5B68012B1BD16421012000F0E9
:10034C009BFE644B1B68013B624A1360634B1B684A
:10035C00013B624A1360614B1B68002B09DC614B4B
:10036C001B685B4A82FB03125211DB17D31A5B4AE0
:10037C0013600020FFF7E4FE0346012B40F0978149
:10038C0000F024FD504B09221A60504B1B68504A58
:10039C0082FB03125211DB17D31A534A1360514BD1
:1003AC001B684B4A82FB03125211DB17D31A4F4ABC
:1003BC001360494B1B68464A82FB03125211DB1730
:1003CC00D31A4B4A13600121042000F055FE464B12
:1003DC001B68404A1360414B02221A6067E100F02F
:1003EC0071FC00F0DDFC3E4B1B68012B08D1364B39
:1003FC0003221A60384B1B681946002000F03CFEA3
:10040C00374B5B68012B29D16421012000F034FEAD
:10041C00304B1B68013B2F4A13602E4B1B68002B83
:10042C0009DC2D4B1B682A4A82FB03125211DB1785
:10043C00D31A284A1360294B1B68013B274A1360C7
:10044C00264B1B68002B09DC204B1B68204A82FBC7
:10045C0003125211DB17D31A204A13600020FFF746
:10046C006FFE0346012B40F0248100F0AFFC164BCD
:10047C0009221A60154B1B68154A82FB0312521194
:10048C00DB17D31A184A1360164B1B68104A82FBF1
:10049C0003125211DB17D31A144A13600E4B1B684C
:1004AC000B4A82FB03125211DB17D31A104A13604A
:1004BC000121042000F0E0FD0B4B1B68054A136082
:1004CC00064B02221A60F4E0900000204400002049
:1004DC001F85EB51A80000204C000020AC00002030
:1004EC00B4000020480000205000002054000020E0
:1004FC005800002000F0FCFB00F026FC704B1B6841
:10050C00012B08D16F4B04221A606F4B1B681946E4
:10051C00002000F0B1FD6A4B5B68012B1BD16421FC
:10052C00012000F0A9FD694B1B68013B674A136071
:10053C00664B1B68002B09DC634B1B68644A82FB0F
:10054C0003125211DB17D31A604A1360614B1B68FC
:10055C00013B604A13600020FFF7F2FD0346012BBC
:10056C0040F0A98000F032FC564B09221A605A4B1D
:10057C001B68574A82FB03125211DB17D31A574AD6
:10058C001360514B1B68524A82FB03125211DB174A
:10059C00D31A534A1360534B1B684D4A82FB031208
:1005AC005211DB17D31A504A13600121042000F0BA
:1005BC0063FD4A4B1B68454A1360464B02221A6086
:1005CC0079E000F0ABFB00F0BFFB3D4B1B68012B4F
:1005DC0008D13C4B01221A60424B1B681946002083
:1005EC0000F04AFD364B5B68012B29D164210120B8
:1005FC0000F042FD354B1B68013B344A1360334B12
:10060C001B68002B09DC344B1B68314A82FB03123C
:10061C005211DB17D31A2D4A13602E4B1B68013B6A
:10062C002C4A13602B4B1B68002B09DC264B1B68D8
:10063C00274A82FB03125211DB17D31A254A136087
:10064C000020FFF77DFD0346012B36D100F0BEFBE9
:10065C001C4B09221A60204B1B681D4A82FB03129B
:10066C005211DB17D31A1D4A1360174B1B68184A1B
:10067C0082FB03125211DB17D31A194A1360194B60
:10068C001B68134A82FB03125211DB17D31A164A4A
:10069C0013600221042000F0EFFC104B1B680B4A86
:1006AC0013600C4B02221A6007E000BF06E000BF8B
:1006BC0004E000BF02E000BF00E000BF00BF80BD4F
:1006CC00B40000209000002048000020A80000206A
:1006DC001F85EB51AC00002044000020500000208E
:1006EC00540000204C0000205800002080B500AFC2
:1006FC009F4B1B680B2B00F0B2800B2B00F32E8151
:10070C00092B02D00A2B58D028E19A4B1B69012BDC
:10071C0014D11921042000F0AFFC974B1B68002B5F
:10072C0007D100F0CFFA00F00FFB934B01221A60B7
:10073C0004E000F04BFB904B00221A600020FFF706
:10074C00FFFC0346012B13D10221042000F094FC82
:10075C00874B0A221A60894B1B68894A82FB031259
:10076C005211DB17D31A874A1360874B03221A6086
:10077C000120FFF7E5FC0346012B0FD1834B1B68CF
:10078C000133824A1360814B1B68632B02DD7F4B64
:10079C0005221A607D4B1B687A4A13600220FFF712
:1007AC00CFFC0346012B40F0DB80784B1B686422A6
:1007BC0002FB03F3764A1360D2E06E4B1B69012BEC
:1007CC0014D11921042000F057FC6B4B1B68002B33
:1007DC0007D1694B01221A6000F0A0FA00F0E0FA90
:1007EC0004E0654B00221A6000F0F0FA0020FFF7DD
:1007FC00A7FC0346002B0DD00221042000F03CFC8A
:10080C005B4B0B221A60634B1B685E4A13605E4B9A
:10081C0004221A600120FFF793FC0346002B0FD033
:10082C005D4B1B6801335C4A13605B4B1B68632B8D
:10083C0002DD594B02221A60574B1B68514A136058
:10084C000220FFF77DFC0346002B00F08B80524BFF
:10085C001B68642202FB03F3484A136082E0454B99
:10086C001B69012B14D11921042000F005FC424B0B
:10087C001B68002B07D1404B01221A6000F038FA9C
:10088C0000F078FA04E03C4B00221A6000F09EFA6B
:10089C000020FFF755FC0346002B36D0344B0122C9
:1008AC001A603B4B1A683D4B1B68D31A334A1360D2
:1008BC00374B1B68324A82FB03125211DB17D31AD7
:1008CC00304A1360354B1B682D4A82FB03125211C0
:1008DC00DB17D31A2C4A13602A4B1B682A4A12685E
:1008EC001146184600F05EF82C4B1B681946002088
:1008FC0000F0C2FB6421012000F0BEFB6421022049
:10090C0000F0BAFB264B00221A600120FFF718FCFE
:10091C000346002B14D01F4B1B6801331D4A136078
:10092C001C4B1B68632B06DD1A4B03221A60154BFC
:10093C0003221A6004E0134B1B680133114A136045
:10094C000220FFF7FDFB0346002B0DD0114B1B685B
:10095C00642202FB03F3114A136005E000BF04E0BC
:10096C0000BF02E000BF00E000BF00BF80BD00BFC1
:10097C0090000020B4000020A400002048000020BB
:10098C001F85EB51A8000020AC0000205000002077
:10099C004400002058000020540000204C0000208F
:1009AC00B000002080B483B000AF786039607B6801
:1009BC00184A82FB03129210DB17D31A164A1360E3
:1009CC007968144B83FB01239A10CB17D21A134668
:1009DC009B0013445B00CA1A0F4B5A603B680D4ACC
:1009EC0082FB03129210DB17D31A0B4A93603968FF
:1009FC00084B83FB01239A10CB17D21A13469B008A
:100A0C0013445B00CA1A044BDA6000BF0C37BD46B6
:100A1C0080BC7047676666669400002080B500AFA6
:100A2C0001224FF4F041024800F031FF00BF80BDBD
:100A3C000008014080B582B000AF78607B68002B65
:100A4C000AD100223F21424800F021FF012240211F
:100A5C003F4800F01CFF77E07B68012B0AD1002295
:100A6C0006213B4800F013FF01227921384800F0A1
:100A7C000EFF69E07B68022B0AD100225B2134480F
:100A8C0000F005FF01222421314800F000FF5BE05B
:100A9C007B68032B0AD100224F212D4800F0F7FE72
:100AAC00012230212A4800F0F2FE4DE07B68042B35
:100ABC000AD100226621264800F0E9FE0122192104
:100ACC00234800F0E4FE3FE07B68052B0AD10022AE
:100ADC006D211F4800F0DBFE012212211C4800F0A2
:100AEC00D6FE31E07B68062B0AD100227D21184806
:100AFC0000F0CDFE01220221154800F0C8FE23E0D3
:100B0C007B68072B0AD100220721114800F0BFFE99
:100B1C00012278210E4800F0BAFE15E07B68082B04
:100B2C0005D100227F210A4800F0B1FE0CE07B6861
:100B3C00092B09D100226F21054800F0A8FE0122E3
:100B4C001021034800F0A3FE00BF0837BD4680BD4E
:100B5C00000C014080B582B000AF78607B68032B3D
:100B6C0000F2848001A252F823F000BF890B000828
:100B7C00C50B0008010C00083D0C000800224FF4C6
:100B8C0000613D4800F083FE01224FF480513A4849
:100B9C0000F07DFE01224FF40051374800F077FE43
:100BAC0001224FF48041344800F071FE334B1B6836
:100BBC001846FFF73FFF5AE001224FF400612E4820
:100BCC0000F065FE00224FF480512B4800F05FFED0
:100BDC0001224FF40051284800F059FE01224FF435
:100BEC008041254800F053FE244B5B681846FFF704
:100BFC0021FF3CE001224FF400611F4800F047FE4A
:100C0C0001224FF480511C4800F041FE00224FF4A9
:100C1C000051194800F03BFE01224FF48041164868
:100C2C0000F035FE154B9B681846FFF703FF1EE0DE
:100C3C0001224FF40061104800F029FE01224FF40C
:100C4C0080510D4800F023FE01224FF400510A4858
:100C5C0000F01DFE00224FF48041074800F017FE03
:100C6C00064BDB681846FFF7E5FE00E000BF00BF4F
:100C7C000837BD4680BD00BF00080140940000202D
:100C8C0080B500AF0D4BDB68012B15D1192103206A
:100C9C0000F0F2F90A4B1B681846FFF75BFF084B94
:100CAC001B68022B03DD064B00221A6004E0044B88
:100CBC001B680133024A136000BF80BDB4000020E2
:100CCC00B000002080B500AF01220221074800F0DF
:100CDC00DEFD00220421054800F0D9FD0022082188
:100CEC00024800F0D4FD00BF80BD00BF00080140E9
:100CFC0080B500AF00220221074800F0C8FD002299
:100D0C000421054800F0C3FD01220821024800F02F
:100D1C00BEFD00BF80BD00BF0008014080B500AF24
:100D2C0000220221074800F0B2FD012204210548EF
:100D3C0000F0ADFD00220821024800F0A8FD00BF24
:100D4C0080BD00BF0008014080B500AF012210211A
:100D5C00074800F09CFD00222021054800F097FD7B
:100D6C0000224021024800F092FD00BF80BD00BF70
:100D7C000008014080B500AF00221021074800F0A8
:100D8C0086FD00222021054800F081FD0122402132
:100D9C00024800F07CFD00BF80BD00BF0008014090
:100DAC0080B500AF00221021074800F070FD012231
:100DBC002021054800F06BFD00224021024800F084
:100DCC0066FD00BF80BD00BF0008014080B500AFCC
:100DDC0000227E21024800F05AFD00BF80BD00BFFA
:100DEC000008014080B500AF00F050FA00F03AF86E
:100DFC0000F0C0F800F072F8154801F08DF90022EF
:100E0C004FF4F061134800F042FDFFF707FEFFF7C7
:100E1C00DDFF0221022000F02FF90321032000F056
:100E2C002BF90D4B9B68012B0BD16421022000F098
:100E3C0023F90A4B1B680A4A126811461846FFF739
:100E4C00B1FDFFF71DFFFFF72BFAFFF74FFCE8E7AB
:100E5C000401002000080140B4000020A80000207C
:100E6C00AC00002080B590B000AF07F11803282229
:100E7C000021184601F00CFD3B1D00221A605A603F
:100E8C009A60DA601A610223BB610123BB621023F2
:100E9C00FB6200237B6307F11803184600F010FD7A
:100EAC000346002B01D000F0E1F80F237B600023F8
:100EBC00BB600023FB6000233B6100237B613B1D77
:100ECC000021184600F07CFF0346002B01D000F0F7
:100EDC00CDF800BF4037BD4680BD000080B586B060
:100EEC0000AF07F1080300221A605A609A60DA60BA
:100EFC003B4600221A605A601D4B4FF080421A602C
:100F0C001B4B41F63F725A60194B00229A60184BEA
:100F1C000922DA60164B00221A61154B00229A61E5
:100F2C00134801F0A9F80346002B01D000F09EF8FD
:100F3C004FF48053BB6007F1080319460C4801F0CD
:100F4C003FFA0346002B01D000F090F800233B60E1
:100F5C0000237B603B461946054801F00BFC034619
:100F6C00002B01D000F082F800BF1837BD4680BDC1
:100F7C000401002080B588B000AF07F110030022F7
:100F8C001A605A609A60DA602E4B9B692D4A43F0C6
:100F9C00100393612B4B9B6903F01003FB60FB6800
:100FAC00284B9B69274A43F004039361254B9B69AB
:100FBC0003F00403BB60BB68224B9B69214A43F0DE
:100FCC00080393611F4B9B6903F008037B607B68EC
:100FDC00002247F6FE711C4800F059FC00227F21CC
:100FEC001A4800F054FC4FF460433B6100237B61D2
:100FFC000123BB6107F110031946154800F0B6FA3E
:10100C0047F6FE733B6101237B610023BB61022326
:10101C00FB6107F1100319460B4800F0A7FA7F2378
:10102C003B6101237B610023BB610223FB6107F160
:10103C0010031946054800F099FA00BF2037BD4649
:10104C0080BD00BF0010024000080140000C0140B0
:10105C000010014080B582B000AF786000F04CF811
:10106C00FFF798F800BF0837BD4680BD80B400AFCD
:10107C0072B600BFFEE7000080B483B000AF7860AA
:10108C003960074A7B68002142F8231005497B68C8
:10109C003A6841F8232000BF0C37BD4680BC70472E
:1010AC00B4000020DC00002080B483B000AF786076
:1010BC000F4A7B6852F82330002B13DD0C4A7B68F7
:1010CC0052F823305A1E0A497B6841F82320084AFB
:1010DC007B6852F82330002B04DC064A7B68012124
:1010EC0042F8231000BF0C37BD4680BC704700BFD0
:1010FC00DC000020B400002080B500AF0020FFF71A
:10110C00D3FF0120FFF7D0FF0220FFF7CDFF032014
:10111C00FFF7CAFF0420FFF7C7FF0920FFF7C4FF42
:10112C0000BF80BD80B485B000AF154B9B69144ADD
:10113C0043F001039361124B9B6903F00103BB6005
:10114C00BB680F4BDB690E4A43F08053D3610C4BE9
:10115C00DB6903F080537B607B680A4B5B68FB6048
:10116C00FB6823F0E063FB60FB6843F08063FB608B
:10117C00044AFB68536000BF1437BD4680BC7047FF
:10118C00001002400000014080B584B000AF7860D0
:10119C007B681B68B3F1804F13D10C4BDB690B4A96
:1011AC0043F00103D361094BDB6903F00103FB60DE
:1011BC00FB68002200211C2000F0A1F91C2000F08B
:1011CC00BAF900BF1037BD4680BD00BF0010024009
:1011DC0080B400AFFEE780B400AFFEE780B400AF90
:1011EC00FEE780B400AFFEE780B400AFFEE780B44A
:1011FC0000AF00BFBD4680BC704780B400AF00BFDD
:10120C00BD4680BC704780B400AF00BFBD4680BCFB
:10121C00704780B500AF00F07FF800BF80BD0000C4
:10122C0080B500AF024800F0C3FF00BF80BD00BF17
:10123C000401002080B400AF00BFBD4680BC7047E5
:10124C00FFF7F8FF0B480C490C4A002302E0D45876
:10125C00C4500433C4188C42F9D3094A094C0023F6
:10126C0001E013600432A242FBD301F0EDFAFFF768
:10127C00B9FD70470000002068000020F02800082D
:10128C006800002050010020FEE7000080B500AF90
:10129C00084B1B68074A43F010031360032000F04F
:1012AC0023F90F2000F008F8FFF73CFF0023184645
:1012BC0080BD00BF0020024080B582B000AF7860D6
:1012CC00124B1A68124B1B7819464FF47A73B3FB06
:1012DC00F1F3B2FBF3F3184600F03BF90346002B95
:1012EC0001D001230EE07B680F2B0AD8002279680D
:1012FC004FF0FF3000F003F9064A7B6813600023BF
:10130C0000E0012318460837BD4680BD5C00002074
:10131C00640000206000002080B400AF054B1B78F7
:10132C001A46054B1B681344034A136000BFBD46A5
:10133C0080BC7047640000204C01002080B400AFDA
:10134C00024B1B681846BD4680BC70474C01002000
:10135C0080B485B000AF78607B6803F00703FB6056
:10136C000C4BDB68BB60BA684FF6FF031340BB60E5
:10137C00FB681A02BB68134343F0BF6343F40033AA
:10138C00BB60044ABB68D36000BF1437BD4680BC49
:10139C00704700BF00ED00E080B400AF044BDB6889
:1013AC001B0A03F007031846BD4680BC704700BFFC
:1013BC0000ED00E080B483B000AF0346FB7197F9F9
:1013CC000730002B0BDBFB7903F01F02064997F962
:1013DC0007305B09012000FA02F241F8232000BF1C
:1013EC000C37BD4680BC704700E100E080B483B090
:1013FC0000AF03463960FB7197F90730002B0ADB0D
:10140C003B68DAB20C4997F907301201D2B20B449F
:10141C0083F800230AE03B68DAB20849FB7903F051
:10142C000F03043B1201D2B20B441A7600BF0C37E7
:10143C00BD4680BC704700BF00E100E000ED00E05D
:10144C0080B489B000AFF860B9607A60FB6803F0D3
:10145C000703FB61FB69C3F10703042B28BF0423BB
:10146C00BB61FB690433062B02D9FB69033B00E02B
:10147C0000237B614FF0FF32BB6902FA03F3DA43BE
:10148C00BB681A407B699A404FF0FF317B6901FAC7
:10149C0003F3D9437B680B40134318462437BD46EE
:1014AC0080BC704780B582B000AF78607B68013B30
:1014BC00B3F1807F01D301230FE00A4A7B68013B23
:1014CC0053600F214FF0FF30FFF790FF054B0022C8
:1014DC009A60044B07221A60002318460837BD4651
:1014EC0080BD00BF10E000E080B582B000AF786036
:1014FC007868FFF72DFF00BF0837BD4680BD80B56B
:10150C0086B000AF0346B9607A60FB7300237B6141
:10151C00FFF742FF78617A68B9687869FFF790FF46
:10152C00024697F90F3011461846FFF75FFF00BFD0
:10153C001837BD4680BD80B582B000AF0346FB7145
:10154C0097F907301846FFF735FF00BF0837BD463F
:10155C0080BD80B582B000AF78607868FFF7A2FFDD
:10156C00034618460837BD4680BD000080B48BB0DA
:10157C0000AF7860396000237B6200233B6248E156
:10158C0001227B6A02FA03F3FB613B681B68FA6970
:10159C001340BB61BA69FB699A4240F037813B68E2
:1015AC005B68A34A93425ED0A14A934275D8A14A84
:1015BC00934258D09F4A93426FD89F4A934252D03D
:1015CC009D4A934269D89D4A93424CD09B4A934280
:1015DC0063D89B4A934246D0994A93425DD8122BCA
:1015EC002AD8122B59D801A252F823F073160008EE
:1015FC004D1600085F160008A1160008A716000873
:10160C00A7160008A7160008A7160008A7160008BA
:10161C00A7160008A7160008A7160008A7160008AA
:10162C00A7160008A7160008A7160008A71600089A
:10163C005516000869160008824A934213D02CE014
:10164C003B68DB683B6229E03B68DB6804333B6248
:10165C0024E03B68DB6808333B621FE03B68DB68D7
:10166C000C333B621AE03B689B68002B02D10423CD
:10167C003B6213E03B689B68012B05D108233B625E
:10168C007B68FA691A6109E008233B627B68FA6996
:10169C005A6103E000233B6200E000BFBB69FF2BF3
:1016AC0001D87B6801E07B6804337B61BB69FF2B4D
:1016BC0002D87B6A9B0002E07B6A083B9B003B6183
:1016CC007B691A680F213B6901FA03F3DB431A406B
:1016DC00396A3B6901FA03F31A437B691A603B6868
:1016EC005B6803F08053002B00F09080564B9B6995
:1016FC00554A43F001039361534B9B6903F001037B
:10170C00BB60BB68514A7B6A9B08023352F823309A
:10171C00FB607B6A03F003039B000F2202FA03F3C6
:10172C00DB43FA681340FB607B68494A93420DD057
:10173C007B68484A934207D07B68474A934201D161
:10174C00022304E0032302E0012300E000237A6A71
:10175C0002F0030292009340FA681343FB603B498A
:10176C007B6A9B080233FA6841F823203B685B686C
:10177C0003F48013002B06D0384B9A683749BB69A9
:10178C0013438B6006E0354B9A68BB69DB433349E6
:10179C0013408B603B685B6803F40013002B06D08E
:1017AC002E4BDA682D49BB691343CB6006E02B4BFB
:1017BC00DA68BB69DB4329491340CB603B685B6843
:1017CC0003F40033002B06D0244B5A682349BB6921
:1017DC0013434B6006E0214B5A68BB69DB431F493E
:1017EC0013404B603B685B6803F48033002B06D0DE
:1017FC001A4B1A681949BB6913430B6006E0174B67
:10180C001A68BB69DB43154913400B607B6A0133D3
:10181C007B623B681A687B6A22FA03F3002B7FF425
:10182C00AFAE00BF00BF2C37BD4680BC704700BFB9
:10183C0000003210000031100000221000002110B6
:10184C0000001210000011100010024000000140B6
:10185C0000080140000C0140001001400004014050
:10186C0080B485B000AF78600B467B807B689A684B
:10187C007B881340002B02D00123FB7301E0002373
:10188C00FB73FB7B18461437BD4680BC704780B495
:10189C0083B000AF78600B467B8013467B707B78FF
:1018AC00002B03D07A887B681A6103E07B881A04CA
:1018BC007B681A6100BF0C37BD4680BC70470000C6
:1018CC0080B586B000AF78607B68002B01D1012316
:1018DC006CE27B681B6803F00103002B00F087802F
:1018EC00924B5B6803F00C03042B0CD08F4B5B68A2
:1018FC0003F00C03082B12D18C4B5B6803F4803380
:10190C00B3F5803F0BD1894B1B6803F40033002BDC
:10191C006CD07B685B68002B68D1012346E27B6846
:10192C005B68B3F5803F06D1804B1B687F4A43F45C
:10193C00803313602EE07B685B68002B0CD17B4BF3
:10194C001B687A4A23F480331360784B1B68774A00
:10195C0023F4802313601DE07B685B68B3F5A02F34
:10196C000CD1724B1B68714A43F4802313606F4B8C
:10197C001B686E4A43F4803313600BE06B4B1B689F
:10198C006A4A23F480331360684B1B68674A23F45C
:10199C00802313607B685B68002B13D0FFF7CEFCB1
:1019AC00386108E0FFF7CAFC02463B69D31A642B86
:1019BC0001D90323FAE15D4B1B6803F40033002BC0
:1019CC00F0D014E0FFF7BAFC386108E0FFF7B6FC82
:1019DC0002463B69D31A642B01D90323E6E1534B2E
:1019EC001B6803F40033002BF0D100E000BF7B68D0
:1019FC001B6803F00203002B63D04C4B5B6803F0B5
:101A0C000C03002B0BD0494B5B6803F00C03082B29
:101A1C001CD1464B5B6803F48033002B16D1434B2F
:101A2C001B6803F00203002B05D07B681B69012B9C
:101A3C0001D00123BAE13D4B1B6823F0F8027B680F
:101A4C005B69DB00394913430B603AE07B681B6927
:101A5C00002B20D0364B01221A60FFF76FFC386147
:101A6C0008E0FFF76BFC02463B69D31A022B01D945
:101A7C0003239BE12D4B1B6803F00203002BF0D0DA
:101A8C002A4B1B6823F0F8027B685B69DB00274953
:101A9C0013430B6015E0264B00221A60FFF74EFC37
:101AAC00386108E0FFF74AFC02463B69D31A022B67
:101ABC0001D903237AE11D4B1B6803F00203002BB1
:101ACC00F0D17B681B6803F00803002B3AD07B68CD
:101ADC009B69002B19D0174B01221A60FFF72EFCC3
:101AEC00386108E0FFF72AFC02463B69D31A022B47
:101AFC0001D903235AE10D4B5B6A03F00203002B5F
:101B0C00F0D0012000F09AFA1CE00A4B00221A6077
:101B1C00FFF714FC38610FE0FFF710FC02463B693D
:101B2C00D31A022B08D9032340E100BF0010024056
:101B3C0000004242800442429E4B5B6A03F0020367
:101B4C00002BE9D17B681B6803F00403002B00F029
:101B5C00A6800023FB75974BDB6903F08053002BA9
:101B6C000DD1944BDB69934A43F08053D361914B75
:101B7C00DB6903F08053BB60BB680123FB758E4BA4
:101B8C001B6803F48073002B18D18B4B1B688A4A9B
:101B9C0043F480731360FFF7D1FB386108E0FFF763
:101BAC00CDFB02463B69D31A642B01D90323FDE01C
:101BBC00814B1B6803F48073002BF0D07B68DB68CF
:101BCC00012B06D17B4B1B6A7A4A43F0010313624B
:101BDC002DE07B68DB68002B0CD1764B1B6A754AB9
:101BEC0023F001031362734B1B6A724A23F0040344
:101BFC0013621CE07B68DB68052B0CD16D4B1B6AF8
:101C0C006C4A43F0040313626A4B1B6A694A43F043
:101C1C00010313620BE0674B1B6A664A23F0010356
:101C2C001362644B1B6A634A23F0040313627B68E0
:101C3C00DB68002B15D0FFF781FB38610AE0FFF75A
:101C4C007DFB02463B69D31A41F28832934201D99B
:101C5C000323ABE0574B1B6A03F00203002BEED0BF
:101C6C0014E0FFF76BFB38610AE0FFF767FB0246F5
:101C7C003B69D31A41F28832934201D9032395E090
:101C8C004C4B1B6A03F00203002BEED1FB7D012BA6
:101C9C0005D1484BDB69474A23F08053D3617B68FD
:101CAC00DB69002B00F08180424B5B6803F00C0376
:101CBC00082B61D07B68DB69022B46D13F4B00229D
:101CCC001A60FFF73BFB386108E0FFF737FB024671
:101CDC003B69D31A022B01D9032367E0354B1B68F0
:101CEC0003F00073002BF0D17B681B6AB3F5803FC7
:101CFC0008D1304B5B6823F400327B689B682D491C
:101D0C0013434B602B4B5B6823F474127B68196A8A
:101D1C007B685B6A0B43274913434B60274B0122BB
:101D2C001A60FFF70BFB386108E0FFF707FB024670
:101D3C003B69D31A022B01D9032337E01D4B1B68D7
:101D4C0003F00073002BF0D02FE01C4B00221A6024
:101D5C00FFF7F4FA386108E0FFF7F0FA02463B6946
:101D6C00D31A022B01D9032320E0124B1B6803F07A
:101D7C000073002BF0D118E07B68DB69012B01D1DB
:101D8C00012313E00B4B5B68FB60FB6803F48032B0
:101D9C007B681B6A9A4206D1FB6803F470127B685D
:101DAC005B6A9A4201D0012300E0002318461837E1
:101DBC00BD4680BD001002400070004060004242F1
:101DCC0080B584B000AF786039607B68002B01D19E
:101DDC000123D0E06A4B1B6803F007033A689A4270
:101DEC0010D9674B1B6823F0070265493B68134306
:101DFC000B60634B1B6803F007033A689A4201D0EF
:101E0C000123B8E07B681B6803F00203002B20D091
:101E1C007B681B6803F00403002B05D0594B5B68EF
:101E2C00584A43F4E06353607B681B6803F0080373
:101E3C00002B05D0534B5B68524A43F460535360FC
:101E4C00504B5B6823F0F0027B689B684D49134351
:101E5C004B607B681B6803F00103002B40D07B6850
:101E6C005B68012B07D1474B1B6803F40033002B35
:101E7C0015D101237FE07B685B68022B07D1414BB6
:101E8C001B6803F00073002B09D1012373E03D4B59
:101E9C001B6803F00203002B01D101236BE0394BCB
:101EAC005B6823F003027B685B68364913434B6025
:101EBC00FFF744FAF8600AE0FFF740FA0246FB68C5
:101ECC00D31A41F28832934201D9032353E02D4BAC
:101EDC005B6803F00C027B685B689B009A42EBD159
:101EEC00274B1B6803F007033A689A4210D2244B25
:101EFC001B6823F0070222493B6813430B60204BFD
:101F0C001B6803F007033A689A4201D0012332E0C0
:101F1C007B681B6803F00403002B08D0194B5B682B
:101F2C0023F4E0627B68DB68164913434B607B68E3
:101F3C001B6803F00803002B09D0124B5B6823F4D9
:101F4C0060527B681B69DB000E4913434B6000F049
:101F5C0021F802460B4B5B681B0903F00F030A497F
:101F6C00CB5C22FA03F3094A1360094B1B68184631
:101F7C00FFF7A2F9002318461037BD4680BD00BFFD
:101F8C000020024000100240C42800085C00002021
:101F9C006000002080B487B000AF0023FB600023FA
:101FAC00BB6000237B6100237B6000233B611E4BE5
:101FBC005B68FB60FB6803F00C03042B02D0082B5E
:101FCC0003D027E0194B3B6127E0FB689B0C03F027
:101FDC000F03174AD35C7B60FB6803F48033002B40
:101FEC0010D0114B5B685B0C03F00103114AD35CFE
:101FFC00BB607B680D4A02FB03F2BB68B2FBF3F3D8
:10200C007B6104E07B680C4A02FB03F37B617B6918
:10201C003B6102E0054B3B6100BF3B6918461C3736
:10202C00BD4680BC704700BF0010024000127A0011
:10203C00D4280008E428000800093D0080B485B0CD
:10204C0000AF78600A4B1B680A4AA2FB03235B0AA9
:10205C007A6802FB03F3FB6000BFFB685A1EFA6050
:10206C00002BF9D100BF00BF1437BD4680BC7047B0
:10207C005C000020D34D621080B582B000AF786058
:10208C007B68002B01D1012341E07B6893F83D3044
:10209C00DBB2002B06D17B68002283F83C207868E9
:1020AC00FFF772F87B68022283F83D207B681A6880
:1020BC007B6804331946104600F06EFA7B680122E7
:1020CC0083F846207B68012283F83E207B6801223E
:1020DC0083F83F207B68012283F840207B68012233
:1020EC0083F841207B68012283F842207B6801221F
:1020FC0083F843207B68012283F844207B6801220B
:10210C0083F845207B68012283F83D200023184684
:10211C000837BD4680BD000080B485B000AF786044
:10212C007B6893F83D30DBB2012B01D0012335E005
:10213C007B68022283F83D207B681B68DA687B6829
:10214C001B6842F00102DA607B681B68164A9342F6
:10215C0009D07B681B68B3F1804F04D07B681B6887
:10216C00124A934211D17B681B689B6803F00703EA
:10217C00FB60FB68062B10D07B681B681A687B68B9
:10218C001B6842F001021A6007E07B681B681A6842
:10219C007B681B6842F001021A6000231846143752
:1021AC00BD4680BC704700BF002C014000040040BD
:1021BC0080B582B000AF78607B681B681B6903F048
:1021CC000203022B22D17B681B68DB6803F002033D
:1021DC00022B1BD17B681B686FF002021A617B68B3
:1021EC0001221A777B681B689B6903F00303002BA1
:1021FC0003D0786800F0B4F905E0786800F0A7F92E
:10220C00786800F0B6F97B6800221A777B681B6847
:10221C001B6903F00403042B22D17B681B68DB6869
:10222C0003F00403042B1BD17B681B686FF00402C2
:10223C001A617B6802221A777B681B689B6903F41E
:10224C004073002B03D0786800F08AF905E07868B9
:10225C0000F07DF9786800F08CF97B6800221A7721
:10226C007B681B681B6903F00803082B22D17B6871
:10227C001B68DB6803F00803082B1BD17B681B6809
:10228C006FF008021A617B6804221A777B681B685E
:10229C00DB6903F00303002B03D0786800F060F9CE
:1022AC0005E0786800F053F9786800F062F97B6813
:1022BC0000221A777B681B681B6903F01003102B34
:1022CC0022D17B681B68DB6803F01003102B1BD139
:1022DC007B681B686FF010021A617B6808221A7702
:1022EC007B681B68DB6903F44073002B03D07868B0
:1022FC0000F036F905E0786800F029F9786800F00C
:10230C0038F97B6800221A777B681B681B6903F01D
:10231C000103012B0ED17B681B68DB6803F0010302
:10232C00012B07D17B681B686FF001021A6178687A
:10233C00FEF790FE7B681B681B6903F08003802B03
:10234C000ED17B681B68DB6803F08003802B07D100
:10235C007B681B686FF080021A61786800F06BFA7A
:10236C007B681B681B6903F04003402B0ED17B6814
:10237C001B68DB6803F04003402B07D17B681B68AC
:10238C006FF040021A61786800F0FCF87B681B68FB
:10239C001B6903F02003202B0ED17B681B68DB68C4
:1023AC0003F02003202B07D17B681B686FF0200201
:1023BC001A61786800F036FA00BF0837BD4680BD58
:1023CC0080B584B000AF786039600023FB737B6804
:1023DC0093F83C30012B01D10223B4E07B6801223D
:1023EC0083F83C207B68022283F83D207B681B68C5
:1023FC009B68BB60BB6823F07703BB60BB6823F4AE
:10240C007F43BB607B681B68BA689A603B681B683B
:10241C00B3F5005F3ED0B3F5005F00F28780B3F5F3
:10242C00805F00F08680B3F5805F7FD8702B1AD068
:10243C00702B7BD8602B50D0602B77D8502B3CD096
:10244C00502B73D8402B58D0402B6FD8302B64D0E6
:10245C00302B6BD8202B60D0202B67D8002B5CD076
:10246C00102B5AD062E07B6818683B6899683B680F
:10247C005A683B68DB6800F05EF97B681B689B68F8
:10248C00BB60BB6843F07703BB607B681B68BA68B2
:10249C009A604FE07B6818683B6899683B685A689B
:1024AC003B68DB6800F047F97B681B689A687B68BF
:1024BC001B6842F480429A603CE07B6818683B6879
:1024CC0059683B68DB681A4600F0BEF87B681B68ED
:1024DC005021184600F015F92CE07B6818683B6811
:1024EC0059683B68DB681A4600F0DCF87B681B68AF
:1024FC006021184600F005F91CE07B6818683B6801
:10250C0059683B68DB681A4600F09EF87B681B68CC
:10251C004021184600F0F5F80CE07B681A683B681F
:10252C001B681946104600F0ECF803E00123FB731E
:10253C0000E000BF7B68012283F83D207B6800220D
:10254C0083F83C20FB7B18461037BD4680BD80B419
:10255C0083B000AF786000BF0C37BD4680BC7047BD
:10256C0080B483B000AF786000BF0C37BD4680BC30
:10257C00704780B483B000AF786000BF0C37BD46A5
:10258C0080BC704780B483B000AF786000BF0C375C
:10259C00BD4680BC7047000080B485B000AF786049
:1025AC0039607B681B68FB607B68254A934207D0C7
:1025BC007B68B3F1804F03D07B68224A934208D1E9
:1025CC00FB6823F07003FB603B685B68FA6813439D
:1025DC00FB607B681A4A934207D07B68B3F1804F4B
:1025EC0003D07B68174A934208D1FB6823F44073ED
:1025FC00FB603B68DB68FA681343FB60FB6823F005
:10260C0080023B685B691343FB607B68FA681A6065
:10261C003B689A687B68DA623B681A687B689A62E6
:10262C007B68074A934203D13B681A697B681A633B
:10263C007B6801225A6100BF1437BD4680BC7047CD
:10264C00002C01400004004080B487B000AFF8605B
:10265C00B9607A60FB681B6A7B61FB681B6A23F0BC
:10266C000102FB681A62FB689B693B613B6923F0C2
:10267C00F0033B617B681B013A6913433B617B6947
:10268C0023F00A037B617A69BB6813437B61FB68A7
:10269C003A699A61FB687A691A6200BF1C37BD46B9
:1026AC0080BC704780B487B000AFF860B9607A60C6
:1026BC00FB681B6A7B61FB681B6A23F01002FB68DA
:1026CC001A62FB689B693B613B6923F470433B6175
:1026DC007B681B033A6913433B617B6923F0A003BE
:1026EC007B61BB681B017A6913437B61FB683A69A8
:1026FC009A61FB687A691A6200BF1C37BD4680BCC0
:10270C00704780B485B000AF786039607B689B6897
:10271C00FB60FB6823F07003FB603A68FB681343B3
:10272C0043F00703FB607B68FA689A6000BF1437BC
:10273C00BD4680BC704780B487B000AFF860B9600C
:10274C007A603B60FB689B687B617B6923F47F4309
:10275C007B613B681A027B681A43BB6813437A6936
:10276C0013437B61FB687A699A6000BF1C37BD46D6
:10277C0080BC704780B485B000AF786039607B68EE
:10278C0093F83C30012B01D1022341E07B680122FC
:10279C0083F83C207B68022283F83D207B681B6811
:1027AC005B68FB607B681B689B68BB60FB6823F005
:1027BC007003FB603B681B68FA681343FB607B6823
:1027CC001B68FA685A607B681B68144A934209D0EC
:1027DC007B681B68B3F1804F04D07B681B68104A80
:1027EC0093420CD1BB6823F08003BB603B685B68F1
:1027FC00BA681343BB607B681B68BA689A607B68D5
:10280C00012283F83D207B68002283F83C200023C2
:10281C0018461437BD4680BC704700BF002C0140E1
:10282C000004004080B483B000AF786000BF0C3768
:10283C00BD4680BC704780B483B000AF786000BFE9
:10284C000C37BD4680BC704770B500260C4D0D4C46
:10285C00641BA410A64209D100F022F800260A4DF0
:10286C000A4C641BA410A64205D170BD55F8043B5C
:10287C0098470136EEE755F8043B98470136F2E7E6
:10288C00E8280008E8280008E8280008EC280008D8
:10289C0003460244934200D1704703F8011BF9E749
:1028AC00F8B500BFF8BC08BC9E467047F8B500BF31
:0828BC00F8BC08BC9E46704701
:1028C40000000000000000000102030406070809DC
:1028D40002030405060708090A0B0C0D0E0F10105D
:0428E40001020000ED
:0428E80031010008B2
:0428EC000D010008D2
:1028F00000200040008000000100000001000000F6
:1029000001000000010000000100000001000000C3
:1029100001000000010000000100000001000000B3
:102920000100000001000000C8000000C800000015
:10293000C8000000F4010000C80000002C010000E5
:102940000500000003000000020000000024F40065
:0829500010000000010000006E
:040000050800124D90
:00000001FF
